:020000040800F2
:10000000000002206D2B00084D2800085D28000824
:10001000652800086D280008752800080000000009
:100020000000000000000000000000007D28000823
:100030008D280008000000009D280008AD28000859
:10004000E12B0008E12B0008E12B0008E12B000860
:10005000E12B0008E12B0008E12B0008E12B000850
:10006000E12B0008E12B0008E12B0008B92800086B
:10007000CD280008E1280008F5280008E12B000839
:10008000E12B0008E12B0008E12B0008E12B000820
:10009000E12B0008E12B0008E12B0008E12B000810
:1000A000E12B0008E12B0008E12B0008E12B000800
:1000B000E12B0008E12B0008E12B0008E12B0008F0
:1000C000E12B0008E12B0008E12B0008E12B0008E0
:1000D000E12B0008E12B0008E12B0008E12B0008D0
:1000E000E12B0008E12B000800000000E12B0008D4
:1000F000E12B0008E12B0008E12B0008E12B0008B0
:10010000E12B0008E12B0008E12B0008E12B00089F
:10011000E12B0008E12B0008E12B0008E12B00088F
:10012000E12B0008E12B0008E12B0008E12B00087F
:10013000E12B0008E12B0008E12B0008E12B00086F
:1001400000000000000000000000000000000000AF
:10015000E12B0008E12B0008E12B0008E12B00084F
:10016000E12B0008E12B0008E12B0008E12B00083F
:10017000E12B0008E12B0008E12B0008E12B00082F
:10018000E12B0008E12B0008E12B0008E12B00081F
:10019000E12B0008E12B0008E12B0008E12B00080F
:1001A000E12B0008E12B0008E12B0008E12B0008FF
:1001B000E12B0008E12B0008E12B0008E12B0008EF
:1001C000E12B0008E12B0008E12B0008E12B0008DF
:1001D000E12B000809290008E12B0008E12B0008A9
:1001E000E12B0008E12B0008E12B0008E12B0008BF
:1001F000E12B0008E12B0008E12B0008E12B0008AF
:10020000E12B0008E12B0008E12B0008E12B00089E
:10021000E12B0008E12B0008E12B0008E12B00088E
:10022000E12B0008E12B0008E12B00080000000092
:10023000E12B0008E12B000800000000E12B000882
:10024000E12B0008E12B0008E12B0008E12B00085E
:10025000E12B0008E12B0008E12B0008E12B00084E
:10026000E12B0008E12B0008E12B0008E12B00083E
:10027000E12B0008E12B0008E12B00080000000042
:10028000E12B0008E12B0008E12B00080000000032
:0802900000000000E12B000852
:1002A00010B5054C237833B9044B13B10448AFF3B0
:1002B00000800123237010BDA80800240000000066
:1002C000A4E1020808B5034B1BB103490348AFF38F
:1002D000008008BD00000000AC080024A4E1020872
:1002E00001F0FF01102A2BDB10F0070F08D010F8E7
:1002F000013B013A8B422DD010F0070F42B3F6D1EB
:10030000F0B441EA012141EA014122F007047FF003
:1003100000070023F0E80256083C85EA010586EA5A
:10032000010685FA47F5A3FA87F586FA47F6A5FA96
:1003300087F68EB9EED1F0BC01F0FF0102F00702A2
:1003400032B110F8013B013A83EA010313B1F8D14D
:100350000020704701387047002D06BF354603382E
:10036000073815F0010F07D1013015F4807F02BF67
:10037000013015F4C03F0130F0BC0138704700BFB8
:1003800010F8012B11F8013B012A28BF9A42F7D03F
:10039000D01A7047034613F8012B002AFBD1181A14
:1003A000013870477BB972B90029BEBF00204FF0F9
:1003B000004106E008BF00281CBF6FF000414FF06D
:1003C000FF3001F043B9ADF1080C6DE904CE00290E
:1003D00009DB002B1ADB00F04DF8DDF804E0DDE965
:1003E000022304B07047404261EB4101002B1BDB4C
:1003F00000F040F8DDF804E0DDE9022304B04042FB
:1004000061EB4101524263EB43037047524263EB9D
:10041000430300F02FF8DDF804E0DDE9022304B027
:10042000404261EB41017047524263EB430300F0ED
:1004300021F8DDF804E0DDE9022304B0524263EB69
:100440004303704753B94AB9002908BF00281CBFAD
:100450004FF0FF314FF0FF3001F0F8B8ADF1080C6C
:100460006DE904CE00F006F8DDF804E0DDE90223D2
:1004700004B070472DE9F047089E04468846002BDB
:100480004BD18A42154667D9B2FA82F24AB1C2F11B
:10049000200701FA02F320FA07F7954047EA03081C
:1004A00094404FEA154E230CB8FBFEF71FFA85FC6B
:1004B0000EFB178843EA084307FB0CF1994209D960
:1004C000EB1807F1FF3080F01B81994240F2188150
:1004D000023F2B445B1AA4B2B3FBFEF00EFB1033B9
:1004E00044EA034400FB0CFCA44509D92C1900F193
:1004F000FF3380F00781A44540F2048102382C4488
:1005000040EA0740A4EB0C0400271EB1D4400023AE
:10051000C6E900433946BDE8F0878B4209D9002E71
:1005200000F0EB800027C6E9000138463946BDE8F7
:10053000F087B3FA83F7002F47D18B4202D3824270
:1005400000F2FA80841A61EB030301209846002E22
:10055000E0D0C6E90048DDE702B9FFDEB2FA82F278
:10056000002A40F08F80491B4FEA154E1FFA85F88C
:100570000127B1FBFEFC230C0EFB1C1143EA0143D7
:1005800008FB0CF1994207D9EB180CF1FF3002D2AD
:10059000994200F2CD808446591AA3B2B1FBFEF015
:1005A0000EFB101443EA044408FB00F8A04507D9E9
:1005B0002C1900F1FF3302D2A04500F2B680184694
:1005C000A4EB080440EA0C409FE7C7F1200CBB40B5
:1005D00022FA0CFE4EEA030E01FA07F420FA0CF59B
:1005E00021FA0CF34FEA1E482543B3FBF8F92C0C13
:1005F00008FB19331FFA8EFA44EA034309FB0AF495
:100600009C4202FA07F200FA07F10BD91EEB030332
:1006100009F1FF3080F087809C4240F28480A9F18C
:10062000020973441B1BADB2B3FBF8F008FB103397
:1006300045EA034400FB0AFAA24508D91EEB04046C
:1006400000F1FF336BD2A24569D90238744440EA05
:100650000940A0FB0289A4EB0A044C45C2464B4664
:1006600054D351D0002E69D0B1EB0A0564EB0304DA
:1006700004FA0CFCFD40FC404CEA0505C6E90054B8
:10068000002747E7C2F1200320FA03F7954001FA5B
:1006900002F021FA03F34FEA154E3843010CB3FB85
:1006A000FEF71FFA85F80EFB173341EA034107FBFB
:1006B00008F38B4204FA02F407D9691807F1FF3CEA
:1006C0002FD28B422DD9023F2944CB1A81B2B3FBE2
:1006D000FEF00EFB103341EA034100FB08F38B42AE
:1006E00007D9691800F1FF3C17D28B4215D902389F
:1006F0002944C91A40EA07473BE73746304609E72D
:100700000746E7E61846FBE64145ABD2B8EB020ADE
:1007100069EB0E0201381346A4E76046E9E7184684
:1007200095E76746D1E781467CE702382C4447E7E6
:10073000ACF1020C2B442FE7384608E73746E9E6D0
:1007400003685A004CBF43F0004323F000431844B1
:10075000704700BF61B32DE9F84F01F1FF3A9046B1
:100760000646D146002707EB090404EBD474641055
:10077000E50071190846FFF7E3FFA245834605F13E
:100780000800304409D0FFF7DBFFC34500F1FF301C
:1007900005D8404509D2671CE5E7C34505D9A742FE
:1007A00002D004F1FF39DEE700210846BDE8F88FEA
:1007B00008467047012807D0022807D0044B0028BC
:1007C0000CBF184600207047024870470248704727
:1007D000A10E0008A50E0008A90E000830B5254B93
:1007E00083B004468D1E4BB301A92846AFF30080A9
:1007F000F0B101992A46FFF7ADFF0146C0B1FFF7FE
:100800009FFF4B68A064012B2ED0002B01F1040048
:1008100026DBFFF795FF0023C4E913030368002BD1
:1008200012DBFFF78DFF00232061184603B030BDB7
:10083000002323610923184603B030BD0E490F4839
:10084000091AC9100191D5E7C3F30360FFF7B2FF9E
:10085000002814BF002309232061184603B030BDCF
:100860000123C4E91303D9E70023236105231846B4
:1008700003B030BD000000000C4F03085C3F0308CC
:100880000368DA0710B5044606D49B0700F1480058
:1008900009D500F05FFC2368590709D51A070ED562
:1008A000DB0613D510BD00F04DFC23685907F5D4C5
:1008B00004F1D00000F056FC23681A07F0D404F5C8
:1008C000A87000F057FC2368DB06EBD404F5E87051
:1008D000BDE8104000F092BC036803B10344184621
:1008E000704700BF09207047704700BF70B50446CD
:1008F0000D4608E02B6C63612A46236921460120DE
:100900009847082808D1296C2046FFF767FF06465C
:100910000028EFD02AF0DEFD0728FBD13046296CF5
:10092000FFF7E2FF281D00F001FC00BF2DE9F047B2
:100930000C1D054617460FCCADF5727D03AE0FC6F4
:100940000FCC0FC60FCC0FC694E80F0002ACD5F841
:100950000C80D5F8189086E80F000023236021E072
:10096000236C6B614FF4F07221467AA82AF033FEB3
:100970002B697AAA294630469847889BCDE90049D9
:100980008246636431462B462A460120C04707460B
:10099000F8B94FF4F0727AA920462AF01CFEBAF199
:1009A000080F1CD1216C2846FFF718FF002F08BF45
:1009B0000926074618BF0A260028D1D0A36B46F0A7
:1009C0001001CDE900492A46636401202B46C04747
:1009D00000B1092738460DF5727DBDE8F087BAF100
:1009E000070FF6D13846216CFFF77EFF03A800F011
:1009F0009DFB00BF406C7047F0B5CB6B0B640D1DC9
:100A00000F4606460FCDF9B001AC0FC40FCD0FC491
:100A10000FCD0FC495E80F004FF0FF3584E80F00AD
:100A2000009506E033696A4631469847082804462F
:100A300008D110993046FFF7D1FE0028F2D00920E6
:100A400079B0F0BD6846FFF71BFF062CF7D1394699
:100A50003046FFF74BFF00BF30B4DD6BC1608261F1
:100A600019461D64002230BC60E700BF70B5C6683F
:100A700043690B64BEB903690A4604460D46014644
:100A800002209847072807D0082803D12946204686
:100A9000FFF72CFF2AF01EFD3046296CFFF724FFDC
:100AA000281D00F043FB0122FFF740FF2AF012FD52
:100AB000C2681AB1CA6B0A64002237E79CE700BF1C
:100AC000704700BF836813B1014601201847704783
:100AD000042907D8DFE801F00308060808000BB96D
:100AE0000F2A03D9022070470120704700EB8202D1
:100AF00018465368009A1360704700BF10B584B061
:100B0000002303AC0A4600941946FFF7E1FF03985F
:100B100004B010BD042907D8DFE801F00308060877
:100B200008000BB90F2A03D9022070470120704733
:100B300000EB8200009A126842601846704700BFBE
:100B400010B584B004AC002344F8042D0A46009488
:100B50001946FFF7DFFF04B010BD00BFF0B5D36B3F
:100B60001364151D07460E460FCDADF50F7D17AC6E
:100B70000FC40FCD0FC40FCD0FC495E80F004FF079
:100B8000FF3584E80F00169510E016A8FFF7D8FF90
:100B9000314616A8B84716AA694678B9049B0820BA
:100BA0009847052804460AD0092807D026996846A0
:100BB000FFF714FE6A460C210028E6D0092416A887
:100BC000FFF75EFE20460DF50F7DF0BD2DE9F04FDD
:100BD0000D46C96C89B00C1D164600F0030B0A685F
:100BE00006941F46002B68D0130CD9B212048DF85E
:100BF0001D30022304EB810405928DF81C302B6D0F
:100C0000BBF1020F08BFAC6B13F0010346D1019397
:100C100000F008030093D4F80090B9F1000F00F041
:100C2000F380022F45D0B4F80090B4F80280043469
:100C3000AB6C28F0010A0F2130469A44FFF75EFFA3
:100C4000824534D829F001035344834294BF0020E5
:100C500001204FEA480808F0020809F0010948EAB3
:100C60000908B8F1010F3AD031D3B8F1020F1AD107
:100C7000236823F0004ABBF1000F66D130B1009A1F
:100C8000002A6CD0BAF1000F00F09080002B00DA3F
:100C900004340AF1010304EB8304BCE7304605A9E0
:100CA00000F046FB78B1092009B0BDE8F08F0020C4
:100CB000CFE7D4F804800834BAE712020323059280
:100CC000ADF81C309BE7082009B0BDE8F08FBBF100
:100CD000000F02D0002840F0B48004349BE7BBF141
:100CE000000F18D1A8B1D4E90023991C4FEAD272A1
:100CF000D9D005F158010133049100F0B580201DD1
:100D0000FFF7EAFD04AB0146284628F0B3FB0028B4
:100D100067D108347FE70D213046D5F82080FFF7F2
:100D2000EDFE8045F5D1AB6A9C42F2D12046FFF73B
:100D300007FD0F2102463046FFF702FF30462A46E4
:100D40000021FFF7FDFE0720AEE70D213046D5F864
:100D50002080FFF7D3FE804532D0236896E7BAF1B2
:100D6000000F23D005F1580304F10408CDF808B0B2
:100D7000DDF800900397A3461C4602E05745B946AC
:100D800040D040460494FFF7A7FD04AB0146002283
:100D9000284628F06FFB09F1010708F10408002834
:100DA000ECD0D1455C46DDE902B7D6D130460D2105
:100DB000FFF7A4FE049B2862C5E90934062073E707
:100DC000AB6A9C42C9D104224FF00008A318C5E9C0
:100DD0000AA8C5E90C23236843454DDB0123019391
:100DE00057E780460D213046FFF788FEB8F1020F25
:100DF00028623ED12B46049A43F82C2F6B62AC62DA
:100E0000062051E75C46D1E705A9304600F090FA8C
:100E100000287FF448AF019B002B3FF454AF0F2113
:100E20003046FFF76BFE0E2102463046FFF788FE84
:100E300030461A4A0F21FFF783FE072009B0BDE8AC
:100E4000F08F2046FFF77CFC04340746AC6328464D
:100E500028F06EFB00283FF426AF30463A460F21BB
:100E6000FFF76EFE07201FE730460D21FFF746FE15
:100E70002862049B6B62C2E70AF1010004EB800068
:100E8000FFF75EFC0F2102463046FFF759FE304661
:100E90002A464146FFF754FE072005E739A102081C
:100EA000002393E6012391E602238FE62DE9F0412A
:100EB0000546C4B0042906D8DFE801F04D2B050330
:100EC0000900032B5FD0022044B0BDE8F081002B65
:100ED000F9D1102AF7D82B68DC0600F1F48022AC97
:100EE0002046019200F094F9A86B019A0023012694
:100EF00006FA03F1114203D0016844F823100430CC
:100F00000133042BF4D1A863204600F077F90020C8
:100F1000DAE7012B4FEA124697B252D0052BD2D115
:100F200006EB0708B8F1200FCDD80F2E40F29980BC
:100F3000B846002F40F0DB80AA6BAA630F2E40F268
:100F4000BE80B8F1000F02D002A800F00BF900201B
:100F500044B0BDE8F081002BB5D1AC6B97B2281D31
:100F6000012606FA03F1394203F1010302D0216898
:100F700001600434102B00F10400F2D112F400508F
:100F8000E5D1AC63A0E7160C97B2F319102B9AD8F1
:100F90002B681A075DD422AC204600F00DF904EB53
:100FA000C601AB6B3FB103EBC702186841F8040BF5
:100FB00004339342F9D12046AB6300F0DBF8002004
:100FC00082E7F219102A3FF67EAF0F2E3FF67BAF75
:100FD0002A68D10708D5284622F0030240F8482B9A
:100FE000019300F0B3F8019B019322AC204600F07E
:100FF000ADF8A96B019B002F00F095807F0004EBFA
:10100000C6044FF00008043C01EB870251F8040BC2
:1010100044F8040F9142F9D1B8F1000F0FD002AC9F
:10102000102E314638BF102104EBC101843902EB88
:10103000C80452F8040B41F8040F9442F9D1012B73
:101040007FF47BAF22AC0432AA63204600F07AF82A
:101050007DE723F008032B6005F5A87000F0ACF8DD
:1010600099E7B8F1100F2A6843D9D007A8F1100802
:101070000BD5284622F0010242F0020240F8482B2C
:10108000019300F06BF82A68019B510725D40F2EBD
:1010900004D822A8019300F061F8019B019302ACEF
:1010A000204600F063F8C6F110010029AA6B019BED
:1010B000B6DD22AC4F0004EBC6041146A3E722A81C
:1010C00000F048F83DE723F010032B6005F5E870C9
:1010D000019200F09DF8019A01E7284622F00402EF
:1010E00040F8D02B019300F041F8019BCFE72A682C
:1010F000CBE7D0070AD5284622F0010242F00202CF
:1011000040F8482B019300F029F8019B019322AC91
:10111000204600F023F8B846A96B019B002F7FF40E
:101120006DAF0A4609E70A468DE700BF00F13401BA
:1011300091E838009C46A6464CF8045D90E8FF0F05
:10114000E54600BD90EC210B704700BF80EC210B01
:10115000704700BF90EC200B704700BF80EC200B65
:10116000704700BFD0EC200B704700BFC0EC200BD5
:10117000704700BFF0EC0201F0EC0211F0EC02212C
:10118000F0EC0231F0EC0241F0EC0251F0EC0261C3
:10119000F0EC0271F0EC0281F0EC0291F0EC02A1B3
:1011A000F0EC02B1F0EC02C1F0EC02D1F0EC02E1A3
:1011B000F0EC02F1704700BFE0EC0201E0EC02113C
:1011C000E0EC0221E0EC0231E0EC0241E0EC025103
:1011D000E0EC0261E0EC0271E0EC0281E0EC0291F3
:1011E000E0EC02A1E0EC02B1E0EC02C1E0EC02D1E3
:1011F000E0EC02E1E0EC02F1704700BFB0FC0181DD
:10120000B0FC0191B0FC01A1B0FC01B1704700BF7E
:10121000A0FC0181A0FC0191A0FC01A1A0FC01B1F6
:10122000704700BFEC4600B52DE900502DE9FF1FC7
:101230004FF000032DE90C0001A9FFF7DDFBDDF8FD
:1012400040E012B0704700BFEC4600B52DE90050F9
:101250002DE9FF1F4FF000032DE90C0001A9FFF756
:1012600005FCDDF840E012B0704700BFEC4600B569
:101270002DE900502DE9FF1F4FF000032DE90C0070
:1012800001A9FFF715FCDDF840E012B0704700BF80
:10129000EC4600B52DE900502DE9FF1F4FF000038B
:1012A0002DE90C0001ABFFF7D7FBDDF840E012B0F1
:1012B000704700BFEC4600B52DE900502DE9FF1F37
:1012C0004FF000032DE90C0001AAFFF747FCDDF801
:1012D00040E012B0704700BF027A82B9437AABB1E6
:1012E0004268013B10B4437213680321141D01725C
:1012F0001A02446002605DF8044B180E70470368E0
:10130000013A02721A020260180E7047B02070474C
:1013100000B585B003AA0023009219460C22FFF7FE
:10132000D7FB039805B05DF804FB00BFF0E700BFF2
:101330002DE9F043054685B00E464FF000083046D3
:10134000FFF7CAFFB028044600F0B180070620D599
:1013500000F0F003802B65D0902B36D0A02B78D0F6
:10136000B02B47D0C02B00F08A8000F0F803D02BC0
:101370000BD100F00702013242F4002205230121C3
:101380002846FFF793FD0028D9D0092005B0BDE815
:10139000F0830DF10C09002319468700CDF8009069
:1013A0000D222846FFF794FBFFB2039BCDF8009077
:1013B000043760064CBFDF1BFF18002319460D22BF
:1013C00028460397FFF7A6FBB9E700F00D030D2BA6
:1013D000DBD003AF002300F00F0219460097284628
:1013E000FFF776FB0023009719460D222846FFF7EA
:1013F00091FBA4E7B1285FD0B22800F0CC80B328DD
:101400007ED000F0FC03B42BBFD000F00702013205
:10141000012342F4002219462846FFF747FD002821
:101420008DD0B2E73046FFF757FF24020443B4F5EE
:10143000004FAAD024010023A2B219462846FFF784
:1014400035FD0028A1D114F4004F18BF4FF001085A
:1014500075E7C24302F007034FF47F621A410107A8
:1014600002F47F624FF0000348BF42F48042194605
:101470002846FFF71BFD00283FF461AF85E7C6282B
:1014800051D0C7285AD000F0F803C02B69D0C82823
:1014900075D0C9287FF479AF3046FFF71DFF0203EE
:1014A00000F00F0002F470220130024366E7B8F149
:1014B000000F14D0002069E73046FFF70DFF002829
:1014C0003FF463AF10F0F0037FF45FAF02461946BC
:1014D0002846FFF7EBFC00283FF431AF55E703AC9B
:1014E00043460E22414600942846FFF7F1FA009445
:1014F000284643460F224146FFF70CFB404645E78E
:101500003046FFF7E9FE010300F00F0001F47021FF
:10151000421C01230A4328461946FFF7C7FC00284E
:101520003FF40DAF31E73046FFF7D6FE010300F080
:101530000F0001F47021421C0323EBE73046FFF754
:10154000CBFE024600283FF420AF10F0F0037FF4FA
:101550001CAF04212846FFF7A9FC00283FF4EFAE9A
:1015600013E700F00F020132032342F42022194650
:101570002846FFF79BFC00283FF4E1AE05E7304624
:10158000FFF7AAFE00F0F00200F00F031032013363
:1015900043EA0232F2E600230DF10C090D2219464E
:1015A000CDF800902846FFF793FA3046FFF794FEF7
:1015B00002064FF002070CD5039B00F07F00B840F5
:1015C000034430460393FFF787FE030607F107073E
:1015D000F2D4039BCDF8009000F07F0403F5017274
:1015E000BC400023144419460D2228460394FFF7FB
:1015F00091FAA4E610B5C36C84B05A6803208DF844
:101600000C00DC798DF80D4012020833084601A960
:1016100001920293FFF78CFE04B010BD08B5FFF7EE
:1016200085FE806C08BD00BF08B5FFF77FFEC06C6B
:10163000C37900EB8300083008BD00BF08B529F06E
:1016400049FF00BF08B5FFF7F9FF00BF704700BFB3
:1016500080B400AFBFF34F8FBFF36F8F0B4B0022EF
:10166000C3F85022BFF34F8FBFF36F8F074B5B69F7
:10167000064A43F400335361BFF34F8FBFF36F8FBC
:1016800000BFBD465DF8047B704700BF00ED00E081
:1016900080B483B000AF78604FF06043D3F8803EF1
:1016A00003F00103002B13D04FF06043D3F8003E4A
:1016B00003F00103002B0BD000E000BF4FF06043AC
:1016C0001B68002BF9D04FF060437A68D2B21A70D1
:1016D0007B6818460C37BD465DF8047B704780B5C3
:1016E00082B000AF78607B681846FFF7D1FF0346F1
:1016F00018460837BD4680BD80B500AFFFF7A8FF8C
:1017000001F070FA00F01AF800F07CFC00F042FCE6
:1017100000F0A2F900F004FA00F0AAFA00F0EEFBE3
:1017200000F052FB00F09CFB26F07AFF00F04AFA32
:1017300000F012F91EF084FBFCE7000080B5CCB08D
:1017400000AF07F1E4034C220021184629F067FF9F
:1017500007F1C40320220021184629F060FF07F199
:1017600008031846BC231A46002129F058FF02201E
:1017700008F086FD3B1D00221A60734B9B69724A7C
:1017800043F440439361704B9B6903F440423B1D1B
:101790001A606E4BDB6A6D4A43F00103D3626B4BF8
:1017A000DB6A03F001023B1D1A603B1D1B6800BF92
:1017B000654B9B6903F40053B3F5005FF8D1644BAC
:1017C0009B6A23F00303624A43F0020393620123FE
:1017D000C7F8E4304FF4A023C7F8E8300223C7F875
:1017E00008310223C7F80C310223C7F81031F02367
:1017F000C7F814310223C7F818310423C7F81C3185
:101800000223C7F820310423C7F824310023C7F886
:1018100028310023C7F82C3107F1E403184608F0FB
:1018200079FD0346002B01D000F0B8FC3F23C7F838
:10183000C4300323C7F8C8300023C7F8CC300823CE
:10184000C7F8D0304023C7F8D4304023C7F8D83089
:101850004FF48063C7F8DC304023C7F8E03007F16D
:10186000C4030421184609F02DF90346002B01D0CA
:1018700000F094FC07F10803364A1A6007F10803E8
:1018800004225A6007F10803F0229A6007F1080366
:101890000222DA6007F1080302221A6107F1080345
:1018A00002225A6107F1080340229A6107F10803F6
:1018B0000022DA6107F1080300221A6207F1080327
:1018C00002225A6207F1080330229A6207F10803E4
:1018D0000222DA6207F1080304221A6307F10803FF
:1018E00002225A6307F108034FF400629A6307F17A
:1018F00008030022DA6307F1080300221A6407F1E3
:1019000008030022DA6507F1080300229A6707F14D
:1019100008034FF40012C3F8842007F108030022E3
:10192000C3F8A02007F10803184609F04FFC03464E
:10193000002B01D000F032FC08F0DCFC00BF07F502
:101940009877BD4680BD00BF00480258000400588B
:101950000044025801100C0080B58AB000AF07F1B6
:101960001C0300221A605A609A603B4600221A60EB
:101970005A609A60DA601A615A619A61334B344A4C
:101980001A60324B4FF400225A60304B00229A60AA
:101990002E4B0022DA602D4B04221A612B4B0022C1
:1019A0001A752A4B00225A75284B01229A61274B3F
:1019B00000221A77254B4FF490625A62234B4FF462
:1019C00080629A62214B0322DA62204B4FF48052EC
:1019D0001A631E4B00225A631C4B002283F83820E6
:1019E0001A4801F0FFFB0346002B01D000F0D6FBA4
:1019F0000023FB6107F11C031946144802F0B0FDF7
:101A00000346002B01D000F0C9FB124B3B600623BC
:101A10007B600123BB6040F2FF73FB6000233B61EE
:101A20004FF400437B6100233B7600237B763B46EB
:101A30001946064801F0A6FE0346002B01D000F02F
:101A4000ADFB00BF2837BD4680BD00BFD045032495
:101A5000002002400800900C80B588B000AF3B1D0C
:101A600000221A605A609A60DA601A615A619A61BB
:101A7000284B294A1A60274B4FF400225A60254B05
:101A800000229A60234B0022DA60224B04221A6162
:101A9000204B00221A751F4B00225A751D4B012244
:101AA0009A611C4B00221A771A4B00225A62194B7A
:101AB00000229A62174B0022DA62164B00221A6348
:101AC000144B00225A63134B002283F8382011482C
:101AD00001F088FB0346002B01D000F05FFB0F4BA9
:101AE0007B600623BB600623FB6040F2FF733B6113
:101AF00004237B610023BB613B1D1946054801F0AF
:101B000041FE0346002B01D000F048FB00BF203708
:101B1000BD4680BD3446032400600258000084CBDB
:101B200080B500AF224B234A1A60214B5B6800222C
:101B30001A701F4B5B68013380221A701C4B5B6864
:101B40000233E1221A701A4B5B68033300221A70C9
:101B5000174B5B68043300221A70154B5B68053322
:101B600000221A70124B01221A72114B124ADA60CB
:101B70000F4B124A1A610E4B40F2F4525A610C4854
:101B800005F0A0FB0346002B01D000F007FB342238
:101B900000210B4829F043FD094B21221A60084B14
:101BA0004FF440325A61064B00221A6100BF80BDDB
:101BB0000C490324008002400061003000600030C6
:101BC0007C49032480B500AF274B284A1A60264B76
:101BD0004FF480025A60244B00229A60224B072265
:101BE000DA60214B00221A611F4B00225A611E4B02
:101BF0004FF080629A611C4B4FF00052DA611A4B31
:101C000000221A62184B00225A62174B00229A6275
:101C1000154B0022DA62144B00225A63124B002249
:101C20009A63114B0022DA630F4B00221A640E4BA9
:101C300000225A640C4B00229A640B4B0022DA6497
:101C4000094B00221A65084B00225A65064B0022F8
:101C50009A6505480BF06EF90346002B01D000F0A1
:101C60009DFA00BF80BD00BF48450324003C0040F2
:101C700080B59AB000AF07F1580300221A605A608D
:101C80009A60DA6007F14C0300221A605A609A6089
:101C900007F1300300221A605A609A60DA601A6114
:101CA0005A619A613B1D2C220021184629F0B7FC8D
:101CB000434B444A1A60424B00225A60404B002278
:101CC0009A603F4B0022DA603D4B00221A613C4B88
:101CD00000225A613A4B00229A6139480CF005FA09
:101CE0000346002B01D000F059FA4FF48053BB6536
:101CF00007F15803194632480CF09AFB0346002BB3
:101D000001D000F04BFA2E480CF044FA0346002BA9
:101D100001D000F043FA0023FB6400233B6500235D
:101D20007B6507F14C03194625480DF057F803462B
:101D3000002B01D000F032FA60233B6300237B6369
:101D40000023BB630023FB6300233B6400237B640D
:101D50000023BB6407F130030022194618480CF039
:101D60004FFA0346002B01D000F018FA00237B60E5
:101D70000023BB600023FB6000233B6100237B61E9
:101D80004FF40053BB610023FB6100233B624FF023
:101D900000737B620023BB620023FB623B1D19467C
:101DA00007480DF0A3F80346002B01D000F0F6F928
:101DB000034800F093FC00BF6837BD4680BD00BFFC
:101DC000144803240000014080B588B000AF07F13B
:101DD000100300221A605A609A60DA603B1D0022EC
:101DE0001A605A609A601D4B4FF080421A601B4B7C
:101DF00000225A60194B00229A60184B0022DA60C8
:101E0000164B00221A61154B00229A6113480CF000
:101E10006CF90346002B01D000F0C0F94FF4805359
:101E20003B6107F1100319460C480CF001FB034617
:101E3000002B01D000F0B2F900237B600023FB608F
:101E40003B1D194605480CF0C9FF0346002B01D085
:101E500000F0A4F900BF2037BD4680BDCC48032464
:101E600080B588B000AF07F1100300221A605A60F5
:101E70009A60DA603B1D00221A605A609A601D4B1E
:101E80001D4A1A601B4B00225A601A4B00229A60AE
:101E9000184B0022DA60174B00221A61154B002202
:101EA0009A6114480CF021F90346002B01D000F090
:101EB00075F94FF480533B6107F1100319460D4843
:101EC0000CF0B6FA0346002B01D000F067F920238E
:101ED0007B600023FB603B1D194606480CF07EFF2B
:101EE0000346002B01D000F059F900BF2037BD4652
:101EF00080BD00BF084503240004004080B500AF4A
:101F0000224B234A1A60214B4FF4E1325A601F4B97
:101F100000229A601D4B0022DA601C4B00221A61DD
:101F20001A4B0C225A61194B00229A61174B00225E
:101F3000DA61164B00221A62144B00225A62134BCC
:101F400000229A6211480DF04FF80346002B01D091
:101F500000F024F900210D480FF0E4FD0346002BAA
:101F600001D000F01BF9002108480FF019FE0346CC
:101F7000002B01D000F012F904480FF09AFD03463F
:101F8000002B01D000F00AF900BF80BD10470324E8
:101F90000010014080B582B000AF194BD3F8D830A3
:101FA000174A43F00103C2F8D830154BD3F8D830A4
:101FB00003F001037B607B68002206210B2002F006
:101FC00084FC0B2002F09BFC002206210C2002F076
:101FD0007CFC0C2002F093FC002206210D2002F074
:101FE00074FC0D2002F08BFC00220C210E2002F06C
:101FF0006CFC0E2002F083FC00BF0837BD4680BD9C
:102000000044025880B58AB000AF07F114030022E3
:102010001A605A609A60DA601A615B4BD3F8E0305C
:10202000594A43F01003C2F8E030574BD3F8E03080
:1020300003F010033B613B69534BD3F8E030524A45
:1020400043F08003C2F8E0304F4BD3F8E03003F0A8
:102050008003FB60FB684C4BD3F8E0304A4A43F006
:102060000403C2F8E030484BD3F8E03003F0040337
:10207000BB60BB68444BD3F8E030434A43F00103F4
:10208000C2F8E030404BD3F8E03003F001037B604E
:102090007B683D4BD3F8E0303B4A43F00203C2F883
:1020A000E030394BD3F8E03003F002033B603B688B
:1020B00000225721354806F0EFFE00224FF48071D0
:1020C000334806F0E9FE01224FF40041304806F0A3
:1020D000E3FE002280212F4806F0DEFE57237B61BD
:1020E0000123BB610023FB6100233B6207F1140362
:1020F0001946264806F016FC04237B610323BB61C6
:102100000023FB6107F114031946234806F00AFC7B
:1021100004237B610323BB610023FB6107F11403EC
:1021200019461C4806F0FEFB4FF480737B611123B7
:10213000BB610023FB6100233B6207F114031946D6
:10214000134806F0EFFB4FF400437B610123BB61B2
:102150000023FB6100233B6207F1140319460C487E
:1021600006F0E0FB80237B610123BB610023FB6160
:1021700000233B6207F114031946064806F0D2FB20
:1021800000BF2837BD4680BD0044025800100258E9
:1021900000000258000402580008025880B400AF42
:1021A00000BFBD465DF8047B7047000080B483B07B
:1021B00000AF0A4BD3F8F430084A43F00203C2F8E8
:1021C000F430064BD3F8F43003F002037B607B68F5
:1021D00000BF0C37BD465DF8047B704700440258D1
:1021E00080B58AB000AF786007F1140300221A604E
:1021F0005A609A60DA601A617B681B68534A93429E
:102200005BD1534BD3F8D830514A43F02003C2F886
:10221000D8304F4BD3F8D83003F020033B613B69F3
:102220004B4BD3F8E0304A4A43F00103C2F8E030A8
:10223000474BD3F8E03003F00103FB60FB68402319
:102240007B610323BB610023FB6107F11403194683
:10225000404806F067FB404B404A1A603E4B09225B
:102260005A603D4B00229A603B4B0022DA603A4BA9
:102270004FF480621A61384B4FF400625A61364B5A
:102280004FF400529A61344B4FF48072DA61324B52
:102290004FF400321A62304B00225A622E4802F08C
:1022A000C1FB0346002B01D0FFF778FF7B682A4A69
:1022B000DA64294A7B68936343E07B681B68284A99
:1022C00093423ED1224BD3F8E030214A43F0807351
:1022D000C2F8E0301E4BD3F8E03003F08073BB60EF
:1022E000BB68204B204A1A601E4B73225A601D4B5C
:1022F00000229A601B4B0022DA601A4B4FF4806276
:102300001A61184B4FF400625A61164B4FF4005299
:102310009A61144B0022DA61124B4FF400321A62B8
:10232000104B00225A620F4802F07CFB0346002B40
:1023300001D0FFF733FF7B680A4ADA64094A7B68F9
:10234000936300BF2837BD4680BD00BF0020024018
:1023500000440258000002589C47032458000240E1
:1023600000600258904403241000024080B58EB0F3
:1023700000AF786007F1240300221A605A609A6067
:10238000DA601A617B681B68514A934240F09B8077
:10239000504BD3F8D8304F4A43F40043C2F8D830FA
:1023A0004C4BD3F8D83003F400433B623B6A494BB3
:1023B000D3F8D830474A43F48033C2F8D830454B7D
:1023C000D3F8D83003F48033FB61FB69414BD3F879
:1023D000D830404A43F40033C2F8D8303D4BD3F8EC
:1023E000D83003F40033BB61BB693A4BD3F8E0301B
:1023F000384A43F00403C2F8E030364BD3F8E030FB
:1024000003F004037B617B69324BD3F8E030314A3F
:1024100043F00103C2F8E0302E4BD3F8E03003F074
:1024200001033B613B692B4BD3F8E030294A43F071
:102430000203C2F8E030274BD3F8E03003F0020388
:10244000FB60FB6802237B620223BB620023FB620A
:1024500000233B630B237B6307F1240319461E48CB
:1024600006F060FA86237B620223BB620023FB62D4
:1024700003233B630B237B6307F1240319461748AF
:1024800006F050FA30237B620223BB620023FB621A
:1024900003233B630B237B6307F1240319460E4898
:1024A00006F040FA4FF460537B620223BB620023C4
:1024B000FB6203233B630B237B6307F12403194671
:1024C000074806F02FFA00BF3837BD4680BD00BF71
:1024D00000800240004402580008025800000258E0
:1024E0000004025880B58AB000AF786007F1140389
:1024F00000221A605A609A60DA601A617B681B6871
:10250000234A93423FD1234BD3F8E830214A43F486
:102510000043C2F8E8301F4BD3F8E83003F400431F
:102520003B613B691B4BD3F8E0301A4A43F004038C
:10253000C2F8E030174BD3F8E03003F00403FB603F
:10254000FB684FF4A0537B610223BB610023FB6156
:1025500002233B6206237B6207F1140319460E48EF
:1025600006F0E0F94FF400637B610223BB610023B6
:10257000FB6100233B6206237B6207F114031946CB
:10258000054806F0CFF900BF2837BD4680BD00BF23
:10259000003C0040004402580008025880B582B058
:1025A00000AF78607B681B68094A93420CD1094BE5
:1025B000D3F8E830074A23F40043C2F8E8304FF478
:1025C000E051054806F05EFB00BF0837BD4680BD00
:1025D000003C0040004402580008025880B586B014
:1025E00000AF78607B681B68374A93423ED1374B17
:1025F000D3F8F030354A43F00103C2F8F030334BE2
:10260000D3F8F03003F001037B617B69304B314A32
:102610001A602F4B0F225A602D4B40229A602C4B90
:102620000022DA602A4B4FF480621A61284B4FF483
:1026300000625A61264B4FF400529A61244B0022EB
:10264000DA61234B00221A62214B00225A62204891
:1026500002F0E8F90346002B01D0FFF79FFD7B68ED
:102660001B4A1A621A4A7B68936328E07B681B68DE
:10267000B3F1804F0FD1154BD3F8E830134A43F034
:102680000103C2F8E830114BD3F8E83003F001033E
:102690003B613B6913E07B681B680F4A93420ED194
:1026A0000A4BD3F8E830094A43F00203C2F8E83095
:1026B000064BD3F8E83003F00203FB60FB6800BF71
:1026C0001837BD4680BD00BF0000014000440258DD
:1026D00054480324400002400004004080B588B004
:1026E00000AF786007F10C0300221A605A609A600C
:1026F000DA601A617B681B68134A93421FD1134B3F
:10270000D3F8E030114A43F01003C2F8E0300F4B29
:10271000D3F8E03003F01003BB60BB684FF44073A4
:10272000FB6002233B6100237B610023BB6101232B
:10273000FB6107F10C031946054806F0F3F800BFEA
:102740002037BD4680BD00BF000001400044025854
:102750000010025880B58AB000AF786007F114030A
:1027600000221A605A609A60DA601A617B681B68FE
:10277000314A93425CD1314BD3F8F0302F4A43F0C9
:102780001003C2F8F0302D4BD3F8F03003F01003F3
:102790003B613B69294BD3F8E030284A43F0020300
:1027A000C2F8E030254BD3F8E03003F00203FB60C1
:1027B000FB684FF440437B610223BB610023FB6154
:1027C00000233B6204237B6207F1140319461C4873
:1027D00006F0A8F81B4B1C4A1A601A4B29225A60B3
:1027E000184B00229A60174B0022DA60154B4FF409
:1027F00080621A61134B00225A61124B00229A61C7
:10280000104B4FF48072DA610E4B00221A620D4BAE
:1028100000225A620B4802F005F90346002B01D052
:10282000FFF7BCFC7B68074A9A67064A7B6893639C
:1028300000BF2837BD4680BD00100140004402584B
:1028400000040258984603242800024080B400AFD8
:1028500001BE00BFBD465DF8047B704780B400AF89
:1028600001BEFEE780B400AF01BEFEE780B400AF5A
:1028700001BEFEE780B400AF01BEFEE780B400AF4A
:1028800001BE00BFBD465DF8047B704780B400AF59
:1028900001BE00BFBD465DF8047B704780B400AF49
:1028A00001BE00BFBD465DF8047B704780B500AF38
:1028B00000F00AFA00BF80BD80B500AF024803F007
:1028C00095F900BF80BD00BF9044032480B500AFE0
:1028D000024803F08BF900BF80BD00BF9846032477
:1028E00080B500AF024803F081F900BF80BD00BF92
:1028F0005448032480B500AF024803F077F900BFC5
:1029000080BD00BF9C47032480B500AF024806F09D
:1029100033FC00BF80BD00BF9456032480B400AFD9
:1029200001231846BD465DF8047B704780B582B030
:1029300000AF7860396028F0F3FD0246162313607B
:102940004FF0FF3318460837BD4680BD80B582B0D2
:1029500000AF78604FF0FF317868FFF7E7FFFEE7E0
:1029600080B586B000AFF860B9607A6000237B6103
:102970000AE0AFF300800146BB685A1CBA60CAB2D5
:102980001A707B6901337B617A697B689A42F0DB5C
:102990007B6818461837BD4680BD80B586B000AF4D
:1029A000F860B9607A6000237B6109E0BB685A1C5B
:1029B000BA601B781846FEF792FE7B6901337B6193
:1029C0007A697B689A42F1DB7B6818461837BD4606
:1029D00080BD80B483B000AF78604FF0FF331846FD
:1029E0000C37BD465DF8047B704780B483B000AF00
:1029F000786039603B684FF400525A6000231846F3
:102A00000C37BD465DF8047B704780B483B000AFDF
:102A10007860012318460C37BD465DF8047B70478B
:102A200080B485B000AFF860B9607A6000231846C2
:102A30001437BD465DF8047B7047000080B586B052
:102A400000AF7860144A154BD31A7B617B693B61F8
:102A5000134B1B68002B02D1114B124A1A60104B0A
:102A60001A687B6813443A699A4207D228F058FDE5
:102A700002460C2313604FF0FF3309E0084B1B683C
:102A8000FB60074B1A687B681344054A1360FB68B8
:102A900018461837BD4680BD000002200004000023
:102AA000C40800240000002080B400AF294BD3F8F4
:102AB0008830284A43F47003C2F88830264B1B68DC
:102AC000254A43F001031360234B00221A61224B75
:102AD0001A682149214B13400B601F4B00229A6159
:102AE0001D4B0022DA611C4B00221A621A4B002295
:102AF0009A62194B0022DA62174B00221A63164BB6
:102B000000225A63144B00229A63134B0022DA63AB
:102B1000114B00221A64104B00225A640E4B1B68A2
:102B20000D4A23F4802313600B4B00221A660C4BD2
:102B30001A680C4B1340B3F1005F02D20A4B01221A
:102B40001A60044B4FF000629A6000BFBD465DF80A
:102B5000047B704700ED00E0004402587FEDF6EA88
:102B60000010005C0000FFFF08810051DFF84CD02E
:102B7000FFF79AFF002103E0114B5B5843500431EB
:102B80001048114B42189A42F6D3002103E00F4B34
:102B90005B58435004310E480E4B42189A42F6D30C
:102BA0000D4A02E0002342F8043B0C4B9A42F9D351
:102BB00028F0CEFCFEF7A0FD7047000000000220C8
:102BC0002C4F030800000024A8080024D457030851
:102BD0000080000048960000A8080024A05A0324A2
:102BE000FEE7000080B582B000AF032001F062FE76
:102BF00008F01EF90146154B9B691B0A03F00F03F1
:102C0000134AD35C03F01F0321FA03F37B600F4BDD
:102C10009B6903F00F030E4AD35C03F01F037A682D
:102C200022FA03F30B4A13600B4A7B6813600320FC
:102C300000F014F80346002B01D0012302E0FFF757
:102C4000B5FA002318460837BD4680BD0044025837
:102C5000A0F70208040000240000002480B582B020
:102C600000AF7860154B1B78002B01D1012321E0C8
:102C7000134B1A68114B1B7819464FF47A73B3FB48
:102C8000F1F3B2FBF3F3184601F047FE0346002BC5
:102C900001D001230EE07B680F2B0AD8002279684F
:102CA0004FF0FF3001F011FE064A7B6813600023ED
:102CB00000E0012318460837BD4680BD0C00002403
:102CC000000000240800002480B400AF064B1B78ED
:102CD0001A46064B1B681344044A136000BFBD46E6
:102CE0005DF8047B704700BF0C000024B04903244A
:102CF00080B400AF034B1B681846BD465DF8047BEB
:102D0000704700BFB049032480B584B000AF78603D
:102D1000FFF7EEFFB8607B68FB60FB68B3F1FF3F35
:102D200005D0094B1B781A46FB681344FB6000BFB3
:102D3000FFF7DEFF0246BB68D31AFA689A42F7D85B
:102D400000BF1037BD4680BD0C00002480B400AF2A
:102D5000034B1B681B0C1846BD465DF8047B70478F
:102D60000010005C80B483B000AF7860064B5B68F5
:102D700023F4600204497B6813434B6000BF0C37A7
:102D8000BD465DF8047B70470004005880B483B0F2
:102D900000AF786039607B689B6823F47C123B68E5
:102DA0001A437B689A6000BF0C37BD465DF8047B10
:102DB000704780B483B000AF786039607B689B68EF
:102DC00023F0E0723B681A437B689A6000BF0C37BF
:102DD000BD465DF8047B704780B483B000AF786077
:102DE0007B689B6803F0E07318460C37BD465DF8BE
:102DF000047B704790B484B000AFF860B9607A602B
:102E00003B60FB6860331A46BB689B0013441C465A
:102E1000236803F000427B6803F0F8413B680B43F2
:102E20001343236000BF1037BD4690BC704780B489
:102E300085B000AFF860B9607A60FB681B6923F465
:102E4000F042BB6803F01F03796801FA03F31A43E9
:102E5000FB681A6100BF1437BD465DF8047B7047FC
:102E600090B484B000AFF860B9607A60FB686033FA
:102E70001A46BB689B0013441C46236823F000429B
:102E80007B681343236000BF1037BD4690BC70477A
:102E900080B483B000AF78607B68DB6803F4406384
:102EA000002B01D1012300E0002318460C37BD465A
:102EB0005DF8047B704790B484B000AFF860B960EF
:102EC0007A60FB6830331A46BB681B0A9B0003F02C
:102ED0000C0313441C462268BB6803F01F031F2128
:102EE00001FA03F3DB431A407B689B0E03F01F01DA
:102EF000BB6803F01F0301FA03F31343236000BF11
:102F00001037BD4690BC704780B483B000AF786086
:102F100039607B68DB6823F003023B681A437B68F7
:102F2000DA6000BF0C37BD465DF8047B704790B493
:102F300084B000AFF860B9607A60FB6814331A4659
:102F4000BB685B0E9B0003F0040313441C4622681D
:102F5000BB681B0D03F01F03072101FA03F3DB43DA
:102F60001A40BB681B0D03F01F03796801FA03F3D5
:102F70001343236000BF1037BD4690BC704700006C
:102F800080B485B000AFF860B9607A60FB68D3F8B0
:102F9000C020BB68C3F31303DB431A407B6803F014
:102FA00018030849D940BB680B40C3F313031A4305
:102FB000FB68C3F8C02000BF1437BD465DF8047B32
:102FC000704700BFFFFF0F0080B483B000AF786090
:102FD0007B689B6803F01F0318460C37BD465DF8FD
:102FE000047B704780B483B000AF78607B689A68D8
:102FF000044B13407A68936000BF0C37BD465DF800
:10300000047B7047C0FFFF5F80B483B000AF78607F
:103010007B689B6803F00053B3F1005F01D101238B
:1030200000E0002318460C37BD465DF8047B70476E
:1030300080B483B000AF78607B689A68054B13401A
:1030400043F080527B689A6000BF0C37BD465DF844
:10305000047B7047C0FFFF6F80B483B000AF78601F
:103060007B689B6803F08053B3F1805F01D101233B
:1030700000E0002318460C37BD465DF8047B70471E
:1030800080B483B000AF78607B689A68054B1340CA
:1030900043F001027B689A6000BF0C37BD465DF8C3
:1030A000047B7047C0FFFF7F80B483B000AF7860BF
:1030B0007B689A68054B134043F002027B689A6074
:1030C00000BF0C37BD465DF8047B7047C0FFFF7F33
:1030D00080B483B000AF78607B689B6803F0010325
:1030E000012B01D1012300E0002318460C37BD4617
:1030F0005DF8047B704780B483B000AF78607B6874
:103100009B6803F00203022B01D1012300E000239E
:1031100018460C37BD465DF8047B704780B483B019
:1031200000AF78607B689A68054B134043F0040257
:103130007B689A6000BF0C37BD465DF8047B704722
:10314000C0FFFF7F80B483B000AF78607B689A686F
:10315000054B134043F010027B689A6000BF0C37A8
:10316000BD465DF8047B7047C0FFFF7F80B483B02D
:1031700000AF78607B689B6803F00403042B01D1E7
:10318000012300E0002318460C37BD465DF8047BA0
:103190007047000080B483B000AF78607B689A68A5
:1031A000054B134043F020027B689A6000BF0C3748
:1031B000BD465DF8047B7047C0FFFF7F80B483B0DD
:1031C00000AF78607B689B6803F00803082B01D18F
:1031D000012300E0002318460C37BD465DF8047B50
:1031E0007047000090B589B000AF78600023FB778E
:1031F0000023BB607B68002B01D101238EE17B683B
:10320000DB68002B7B685B6D002B09D17868FEF7CB
:10321000E7FF7B6800229A657B68002283F85020D4
:103220007B681B681846FFF7EFFE0346002B04D0AF
:103230007B681B681846FFF7D5FE7B681B6818463D
:10324000FFF70AFF0346002B13D17B681B68184663
:10325000FFF7EEFE9A4B1B689B099A4AA2FB0323D9
:103260009B09BB6002E0BB68013BBB60BB68002BF5
:10327000F9D17B681B681846FFF7EEFE0346002B6A
:103280000DD17B685B6D43F010027B685A657B68EB
:103290009B6D43F001027B689A650123FB777B6895
:1032A0001B681846FFF762FF78617B685B6D03F06F
:1032B0001003002B40F029817B69002B40F0258111
:1032C0007B685B6D23F4817343F002027B685A656F
:1032D0007B681B681846FFF7FBFE0346002B36D1C0
:1032E0007B681B68784A934204D07B681B68774AE6
:1032F00093420ED17448FFF7EBFE04467348FFF784
:10330000E7FE03462343002B0CBF01230023DBB25F
:1033100008E06F48FFF7DCFE0346002B0CBF0123DB
:103320000023DBB2002B12D07B681B68664A9342F5
:1033300004D07B681B68654A934201D1654A00E06E
:10334000654A7B685B6819461046FFF71FFDFFF76B
:10335000FDFC024641F203039A4214D97B689B6844
:10336000102B10D17B685B7D5A037B681B6B1A4363
:103370007B689B681A437B681B7F1B04134343F0E5
:103380000C03BB610DE07B685B7D5A037B681B6BA4
:103390001A437B689B681A437B681B7F1B0413439B
:1033A000BB617B681B7F012B06D17B681B6A013BDD
:1033B0005B04BA691343BB617B685B6A002B09D06D
:1033C0007B685B6A03F478727B689B6A1343BA6913
:1033D0001343BB617B681B68DA68404B13407A6813
:1033E0001268B9690B43D3607B681B681846FFF706
:1033F000BDFE38617B681B681846FFF7DFFEF8608A
:103400003B69002B4AD1FB68002B47D17B681B7DB1
:103410009A037B68DB6A1343BB617B681B68DA68CD
:103420002F4B13407A681268B9690B43D3607B68ED
:1034300093F83830012B1BD17B685B6A002B7B68CB
:103440001B681A69274B13407A68D26B013A110442
:103450007A68126C11437A68526C11437A68926CE4
:103460000A431A437B681B6842F001021A6107E0B5
:103470007B681B681A697B681B6822F001021A616D
:103480007B681B681B6923F070417B685A6B7B6803
:103490001B680A431A61786800F0ACFE7B68DB6841
:1034A000012B21D17B681B681B6B23F00F017B680C
:1034B0009B695A1E7B681B680A431A631CE000BFA5
:1034C00000000024632D3E05002002400021024040
:1034D00000600258002302400063025803C0F0FF5E
:1034E000FCBFFFFF1EF800FC7B681B681A6B7B6843
:1034F0001B6822F00F021A637B685B6D23F00303E5
:1035000043F001027B685A6507E07B685B6D43F01E
:1035100010027B685A650123FB77FB7F184624372E
:10352000BD4690BD80B586B000AFF860B9607A60E6
:10353000FB681B68554A934204D0FB681B68544AD9
:10354000934201D1534B00E0534B1846FFF73CFD2B
:103550003861FB681B681846FFF708FE0346002B1E
:1035600040F08C80FB6893F85030012B01D102238E
:1035700087E0FB68012283F850203B69002B05D0CF
:103580003B69052B02D03B69092B70D1F86800F02C
:10359000C1FC0346FB75FB7D002B63D1FB685A6DB4
:1035A0003E4B134043F48072FB685A65FB681B680E
:1035B000374A934202D0FB681B6800E0334BFA683D
:1035C0001268934202D03B69002B05D1FB685B6D0A
:1035D00023F48012FB685A65FB685B6D03F480532B
:1035E000002B06D0FB689B6D23F00602FB689A65F2
:1035F00002E0FB6800229A65FB68DB6C284ADA630C
:10360000FB68DB6C274A1A64FB68DB6C264ADA64C9
:10361000FB681B681C221A60FB68002283F850209C
:10362000FB681B685A68FB681B6842F010025A600E
:10363000FB681A68FB68DB6A19461046FFF764FCF2
:10364000FB68D86CFB681B6840331946BA687B6816
:1036500001F044FD0346FB75FB681B681846FFF745
:103660005DFD0DE0FB68002283F8502008E0012397
:10367000FB75FB68002283F8502001E00223FB75F4
:10368000FB7D18461837BD4680BD00BF00200240B4
:10369000002102400023024000630258FEF0FFFFB9
:1036A000CD400008A5410008C141000880B584B0A4
:1036B00000AF78607B6893F85030012B01D1022372
:1036C0004FE07B68012283F850200321786800F0E6
:1036D0006DFB0346FB73FB7B002B3DD17B681B68B6
:1036E000DA687B681B6822F00302DA607B68DB6CB7
:1036F00093F83530DBB2022B0FD17B68DB6C1846B8
:1037000001F056FF0346FB73FB7B002B05D07B6863
:103710005B6D43F040027B685A657B681B685A68A2
:103720007B681B6822F010025A60FB7B002B05D1DE
:10373000786800F073FC0346FB7302E0786800F0E1
:103740006DFCFB7B002B07D17B685A6D074B134048
:1037500043F001027B685A657B68002283F85020A1
:10376000FB7B18461037BD4680BD00BFFEEEFFFF55
:1037700080B483B000AF786000BF0C37BD465DF801
:10378000047B704790B599B000AF78603960002332
:1037900087F85F300023BB603B68DB68994A93423F
:1037A0007B6893F85030012B01D10223E6E27B685D
:1037B000012283F850207B681B681846FFF7D6FC6F
:1037C0000346002B40F0CB823B681B68C3F3130316
:1037D000002B08D13B681B689B0E03F01F030122DE
:1037E00002FA03F30FE03B681B68BB64BB6C93FAFF
:1037F000A3F37B647B6CB3FA83F3DBB203F01F03A8
:10380000012202FA03F37A681268D1697A681268B1
:103810000B43D3617B6818683B6859683B681B6839
:103820001A46FFF748FB7B681B681846FFF79EFCAB
:10383000B8657B681B681846FFF7C0FC7865BB6DF0
:10384000002B40F0B3807B6D002B40F0AF807B6895
:1038500018683B6819683B689B681A46FFF767FB66
:10386000694B1B6803F07043B3F1805F0BD13B6879
:103870005A697B681B68DB689B0803F007035B00E1
:1038800002FA03F31DE07B681B68DB6803F010039A
:10389000002B0BD13B685A697B681B68DB689B086F
:1038A00003F007035B0002FA03F30AE03B685A697E
:1038B0007B681B68DB689B0803F004035B0002FA6B
:1038C00003F33B653B681B69042B27D07B681868B2
:1038D0003B6819693B681A683B6DFFF78BFA7B6898
:1038E00018683B6819693B685B7E012B02D14FF079
:1038F000004300E000231A46FFF7B2FA7B6818681D
:103900003B6819693B681B7E012B02D14FF40063B1
:1039100000E000231A46FFF78AFA47E07B681B683D
:103920001B6E03F0F8423B681B689B069A4207D166
:103930007B681B681A6E7B681B6822F000421A665F
:103940007B681B685B6E03F0F8423B681B689B0654
:103950009A4207D17B681B685A6E7B681B6822F00D
:1039600000425A667B681B689B6E03F0F8423B6816
:103970001B689B069A4207D17B681B689A6E7B681E
:103980001B6822F000429A667B681B68DB6E03F0BE
:10399000F8423B681B689B069A4207D17B681B680C
:1039A000DA6E7B681B6822F00042DA667B681B686F
:1039B0001846FFF78DFB0346002B40F0D9817B684A
:1039C00018683B6819683B68DB681A46FFF7D8FA45
:1039D0003B68DB680B4A934240F001817B681868C2
:1039E0003B681B68C3F31303002B0FD13B681B68B4
:1039F0009B0E013303F01F03092B94BF0123002307
:103A0000DBB216E00000FF470010005C3B681B685B
:103A10003B643B6C93FAA3F3FB63FB6BB3FA83F356
:103A2000DBB2013303F01F03092B94BF01230023F2
:103A3000DBB2002B64D03B681B68C3F31303002B7D
:103A400007D13B681B689B0E01339B0603F0F842CD
:103A50000EE03B681B68BB63BB6B93FAA3F37B630D
:103A60007B6BB3FA83F3DBB201339B0603F0F842BE
:103A70003B681B68C3F31303002B09D13B681B6829
:103A80009B0E013303F01F03012101FA03F310E041
:103A90003B681B683B633B6B93FAA3F3FB62FB6AD7
:103AA000B3FA83F3DBB2013303F01F03012101FA00
:103AB00003F342EA03013B681B68C3F31303002BC3
:103AC0000AD13B681B689B0E013303F01F021346AB
:103AD0005B0013441B0511E03B681B68BB62BB6ABB
:103AE00093FAA3F37B627B6AB3FA83F3DBB201330D
:103AF00003F01F0213465B0013441B050B4369E0F0
:103B00003B681B68C3F31303002B07D13B681B689A
:103B10009B0E01339B0603F0F8420EE03B681B68E6
:103B20003B623B6A93FAA3F3FB61FB69B3FA83F34D
:103B3000DBB201339B0603F0F8423B681B68C3F31A
:103B40001303002B09D13B681B689B0E013303F064
:103B50001F03012101FA03F310E03B681B68BB61FE
:103B6000BB6993FAA3F37B617B69B3FA83F3DBB29E
:103B7000013303F01F03012101FA03F342EA0301B9
:103B80003B681B68C3F31303002B0DD13B681B6814
:103B90009B0E013303F01F0213465B0013441E3BD0
:103BA0001B0543F0007314E03B681B683B613B69F5
:103BB00093FAA3F3FB60FB68B3FA83F3DBB2013340
:103BC00003F01F0213465B0013441E3B1B0543F02A
:103BD00000730B433A6892681946FFF7A8F93B68EF
:103BE0001B68002B80F2C4807B681B68654A934287
:103BF00004D07B681B68644A934201D1634B00E0A8
:103C0000634B1846FFF7E8F8F8647B681B685D4A69
:103C1000934204D07B681B685B4A93420ED159489B
:103C2000FFF756FA04465848FFF752FA0346234373
:103C3000002B0CBF01230023DBB208E05548FFF73F
:103C400047FA0346002B0CBF01230023DBB2002BF5
:103C50007BD03B681B68504A93422ED1FB6C03F427
:103C60000003002B29D17B681B684A4A93427FD10D
:103C70007B681B68434A934204D07B681B68424AB6
:103C8000934201D1414A00E0414AFB6C43F40003F6
:103C900019461046FFF78DF8404B1B689B09404AB8
:103CA000A2FB03239B095B00BB6002E0BB68013BF6
:103CB000BB60BB68002BF9D15AE03B681B68394AEE
:103CC00093421ED1FB6C03F08073002B19D17B68EB
:103CD0001B68304A93424BD17B681B68294A934248
:103CE00004D07B681B68284A934201D1274A00E030
:103CF000274AFB6C43F0807319461046FFF759F8CA
:103D000036E03B681B68284A934231D1FB6C03F4D0
:103D10008003002B2CD17B681B681E4A934227D15D
:103D20007B681B68174A934204D07B681B68164A5D
:103D3000934201D1154A00E0154AFB6C43F480031D
:103D400019461046FFF735F812E07B685B6D43F0CB
:103D500020027B685A65012387F85F3008E07B68A2
:103D60005B6D43F020027B685A65012387F85F3062
:103D70007B68002283F8502097F85F30184664373C
:103D8000BD4690BD002002400021024000230240B9
:103D90000063025800600258000084CB0000002439
:103DA000632D3E05000052C70000B8CF80B588B033
:103DB00000AF786039600023FB613B68BB617B68C2
:103DC0001B681846FFF7D2F938617B681B681846F4
:103DD000FFF7F4F9F8603B69002B03D1FB68002B77
:103DE00000F090807B681B68DB6803F00073002B99
:103DF0002AD07B685B7D012B26D17B681B7D012B44
:103E000022D10123BB6114E0FB69414A93420DD9E1
:103E10007B685B6D43F010027B685A657B689B6D25
:103E200043F001027B689A6501236CE0FB69013372
:103E3000FB617B681B681B6803F04003402BE3D1E8
:103E40007B681B6840221A60BB69022B14D07B6818
:103E50001B681846FFF78AF90346002B0CD07B68D5
:103E60001B681846FFF747F90346002B04D17B680F
:103E70001B681846FFF766F9BB69012B14D07B68F5
:103E80001B681846FFF79AF90346002B0CD07B6895
:103E90001B681846FFF72FF90346002B04D17B68F7
:103EA0001B681846FFF776F9BB69022B04D0032B79
:103EB00005D10C237B6105E008237B6102E004232C
:103EC0007B6100BFFEF714FFB86014E0FEF710FF3F
:103ED0000246BB68D31A052B0DD97B685B6D43F096
:103EE00010027B685A657B689B6D43F001027B681A
:103EF0009A65012307E07B681B689A687B69134019
:103F0000002BE3D1002318462037BD4680BD00BFFB
:103F1000FFDB0C0080B584B000AF78607B681B6865
:103F20001846FFF7D5F80346002B67D17B681B685E
:103F30009A68354B1340002B0DD07B685B6D43F0C6
:103F400010027B685A657B689B6D43F001027B68B9
:103F50009A65012353E07B681B681846FFF790F8C9
:103F6000FEF7C6FEF8607B681B68284A934204D0BF
:103F70007B681B68264A934201D1264B00E0264B02
:103F80001846FFF721F8B8607B681B68204A934207
:103F900002D07B681B6800E01C4B7A681268934271
:103FA00025D0BB68002B29D121E07B681B6818460F
:103FB000FFF78EF80346002B04D17B681B68184678
:103FC000FFF75EF8FEF794FE0246FB68D31A022B59
:103FD0000DD97B685B6D43F010027B685A657B6886
:103FE0009B6D43F001027B689A65012307E07B68C3
:103FF0001B681B6803F00103012BD6D10023184670
:104000001037BD4680BD00BF3F0000800020024049
:1040100000210240002302400063025880B584B0B2
:1040200000AF78607B681B681846FFF764F8F8609B
:104030007B681B681846FFF74BF80346002B40D0FF
:10404000FB68002B3DD17B681B689B6803F00D0368
:10405000012B0CD17B681B681846FFF725F87B689D
:104060001B6803221A60FEF743FEB86022E07B68FB
:104070005B6D43F010027B685A657B689B6D43F073
:1040800001027B689A6501231CE0FEF731FE0246BF
:10409000BB68D31A022B0DD97B685B6D43F010020D
:1040A0007B685A657B689B6D43F001027B689A656B
:1040B000012307E07B681B689B6803F00103002B6A
:1040C000E3D1002318461037BD4680BD80B584B0CB
:1040D00000AF78607B689B6BFB60FB685B6D03F0F7
:1040E0005003002B4BD1FB685B6D43F40072FB68FF
:1040F0005A65FB681B681B6803F00803002B21D07E
:10410000FB681B681846FEF7C3FE0346002B32D03F
:10411000FB681B68DB6803F40053002B2BD1FB68A2
:104120005B6D23F48072FB685A65FB685B6D03F47A
:104130008053002B1FD1FB685B6D43F00102FB68CD
:104140005A6518E0FB681B68DB6803F00303002B6B
:1041500011D1FB685B6D23F48072FB685A65FB68C4
:104160005B6D03F48053002B05D1FB685B6D43F05E
:104170000102FB685A65F86810F0A0FC0EE0FB68CD
:104180005B6D03F01003002B03D0F868FFF7F0FA23
:1041900004E0FB68DB6CDB6C7868984700BF103785
:1041A000BD4680BD80B584B000AF78607B689B6BF6
:1041B000FB60F86810F08DFC00BF1037BD4680BD75
:1041C00080B584B000AF78607B689B6BFB60FB6858
:1041D0005B6D43F04002FB685A65FB689B6D43F0E2
:1041E0000402FB689A65F868FFF7C2FA00BF10374F
:1041F000BD4680BD80B584B000AF78607B681B6829
:10420000704A934204D07B681B686F4A934209D17D
:104210006E4B9B6803F44033002B14BF0123002333
:10422000DBB208E06A4B9B6803F44033002B14BFF9
:1042300001230023DBB2002B1AD006F06BFFF860DD
:104240007B685B68B3F5003F06D0B3F5403F0BD009
:10425000B3F5803F00D05DE07B685B681B0CFA68BB
:10426000B2FBF3F3FB6055E0FB689B08FB6051E099
:104270004FF4002007F088FEF8607B685B68B3F5B8
:10428000C01F2AD0B3F5C01F13D8B3F5402F24D0D8
:10429000B3F5402F06D8B3F5802F1ED0B3F5002F0D
:1042A0001BD037E0B3F5801F17D0B3F5A01F14D093
:1042B00030E0B3F5101F21D0B3F5101F06D8B3F5C9
:1042C000E01F13D0B3F5001F14D023E0B3F5201F77
:1042D00018D0B3F5301F19D01CE07B685B689B0CCD
:1042E0005B00FA68B2FBF3F3FB6013E0FB681B09A9
:1042F000FB600FE0FB685B09FB600BE0FB689B0960
:10430000FB6007E0FB68DB09FB6003E0FB681B0A5E
:10431000FB6000BFFEF71AFD024641F203039A421A
:1043200015D8FB682B4A934208D97B681B689A68AA
:104330007B681B6842F480729A603EE07B681B6871
:104340009A687B681B6822F480729A6035E0FB688B
:104350005B08FB60FB68204A934208D87B681B68B7
:104360009A687B681B6822F440729A6025E0FB68BB
:104370001A4A93420AD87B681B689B6823F44072F0
:104380007B681B6842F480729A6016E0FB68144AEE
:1043900093420AD87B681B689B6823F440727B6851
:1043A0001B6842F400729A6007E07B681B689A6899
:1043B0007B681B6842F440729A6000BF1037BD46AC
:1043C00080BD00BF002002400021024000230240C7
:1043D00000630258002D3101105E5F0020BCBE005A
:1043E00040787D0180B483B000AF78607B689B68C3
:1043F00003F00103012B01D1012300E00023184643
:104400000C37BD465DF8047B7047000080B485B072
:1044100000AFF860B9607A60FB689A68094B134096
:10442000BA6802F480317A6802F080420A4313438A
:1044300043F00042FB689A6000BF1437BD465DF848
:10444000047B7047C0FFFE3F80B483B000AF78604C
:104450007B689B6803F00043B3F1004F01D1012357
:1044600000E0002318460C37BD465DF8047B70471A
:1044700080B483B000AF78607B689B6803F004036E
:10448000042B01D1012300E0002318460C37BD4660
:104490005DF8047B7047000080B586B000AFF8601F
:1044A000B9607A6000233B61FB6893F85030012BC0
:1044B00001D102234CE0FB68012283F85020F86808
:1044C000FFF7ACFD0346FB75FB7D002B35D1FB6888
:1044D0005A6D214B134043F00202FB685A65FB689A
:1044E0001B687A68B9681846FFF790FF14E03B69CB
:1044F00001333B613B69194A93420DD9FB685B6DFF
:1045000023F0120343F01002FB685A65FB68002297
:1045100083F8502001231BE0FB681B681846FFF757
:1045200093FF0346002BE2D1FB685B6D23F003038E
:1045300043F00102FB685A6505E0FB685B6D43F0E0
:104540001002FB685A65FB68002283F85020FB7D4F
:1045500018461837BD4680BDFDEEFFFFFFF7C325A7
:1045600090B59FB000AF78603960002387F877304E
:104570007B6893F85030012B01D10223BAE07B68AD
:10458000012283F850207B681B685C4A934202D169
:104590005B4BBB6001E00023BB60BB68002B0BD111
:1045A0007B685B6D43F020027B685A657B68002264
:1045B00083F8502001239DE0BB681846FFF758FFA1
:1045C00038677B681B681846FFF752FF0346002BCD
:1045D0007FD13B6F002B7CD17B681B68474A93429D
:1045E00004D07B681B68464A934201D1454B00E0EA
:1045F000454BFB663B681B68002B39D0FB6E9B6804
:1046000023F440423B685B681A43FB6E9A607B6808
:104610001B683A4A934204D07B681B68384A93422D
:104620000ED13648FFF7DEFE04463548FFF7DAFEC6
:1046300003462343002B0CBF01230023DBB208E019
:104640003248FFF7CFFE0346002B0CBF01230023A7
:10465000DBB2002B47D0FB6E9A682D4B13403A68B3
:1046600011683A6892680A431A43FB6E9A603AE00E
:10467000FB6E9B6823F44042FB6E9A607B681B686C
:104680001E4A934204D07B681B681D4A93420ED198
:104690001A48FFF7A7FE04461948FFF7A3FE034692
:1046A0002343002B0CBF01230023DBB208E0174893
:1046B000FFF798FE0346002B0CBF01230023DBB25B
:1046C000002B10D0FB6E9A68114B1340FA6E93606A
:1046D00009E07B685B6D43F020027B685A6501232B
:1046E00087F8773000E000BF7B68002283F8502015
:1046F00097F8773018467C37BD4690BD00200240C1
:10470000002102400023024000630258006002586A
:10471000E0F0FFFF80B485B000AF78607B6803F005
:104720000703FB600B4BDB68BB60BA684FF6FF0307
:104730001340BB60FB681A02BB681A43064B134365
:10474000BB60044ABB68D36000BF1437BD465DF848
:10475000047B704700ED00E00000FA0580B400AF74
:10476000044BDB681B0A03F007031846BD465DF8DF
:10477000047B704700ED00E080B483B000AF0346D7
:10478000FB80B7F90630002B0BDBFB8803F01F0220
:104790000749B7F906305B09012000FA02F241F837
:1047A000232000BF0C37BD465DF8047B704700BF77
:1047B00000E100E080B483B000AF03463960FB80C5
:1047C000B7F90630002B0ADB3B68DAB20C49B7F9BF
:1047D00006301201D2B20B4483F800230AE03B6892
:1047E000DAB20849FB8803F00F03043B1201D2B28E
:1047F0000B441A7600BF0C37BD465DF8047B70474A
:1048000000E100E000ED00E080B489B000AFF860A6
:10481000B9607A60FB6803F00703FB61FB69C3F1D1
:104820000703042B28BF0423BB61FB690433062B59
:1048300002D9FB69033B00E000237B614FF0FF32AC
:10484000BB6902FA03F3DA43BB681A407B699A40FA
:104850004FF0FF317B6901FA03F3D9437B680B40CA
:10486000134318462437BD465DF8047B70470000AB
:1048700080B582B000AF78607B68013BB3F1807F88
:1048800001D301230FE00A4A7B68013B53600F21EB
:104890004FF0FF30FFF78EFF054B00229A60044B6C
:1048A00007221A60002318460837BD4680BD00BFA6
:1048B00010E000E080B582B000AF78607868FFF764
:1048C00029FF00BF0837BD4680BD80B586B000AF68
:1048D0000346B9607A60FB81FFF740FF78617A6830
:1048E000B9687869FFF790FF0246B7F90E301146B4
:1048F0001846FFF75FFF00BF1837BD4680BD80B583
:1049000082B000AF0346FB80B7F906301846FFF7C8
:1049100033FF00BF0837BD4680BD80B582B000AF11
:1049200078607868FFF7A4FF034618460837BD464D
:1049300080BD000080B400AFBFF35F8F064B5B6AA1
:10494000054A23F480335362044B00225A6000BFAF
:10495000BD465DF8047B704700ED00E090ED00E09F
:1049600080B483B000AF78600A4A7B6843F00103EB
:104970005360094B5B6A084A43F480335362BFF3C8
:104980004F8FBFF36F8F00BF0C37BD465DF8047BC0
:10499000704700BF90ED00E000ED00E080B483B010
:1049A00000AF78607B685A781D4B9A607B681B78F3
:1049B000002B29D01A4A7B685B68D3607B681B7B1D
:1049C0001A077B68DB7A1B061A437B689B7ADB0439
:1049D0001A437B685B7B9B041A437B689B7B5B046D
:1049E0001A437B68DB7B1B041A437B685B7A1B02E0
:1049F0001A437B681B7A5B0013437A68127811466E
:104A0000074A0B43136105E0054B0022DA60044BB3
:104A100000221A6100BF0C37BD465DF8047B704769
:104A200090ED00E080B586B000AF7860FEF760F9E9
:104A300038617B68002B01D1012316E37B681B687A
:104A4000664A93424AD07B681B68654A934245D0C8
:104A50007B681B68634A934240D07B681B68624A4C
:104A600093423BD07B681B68604A934236D07B6898
:104A70001B685F4A934231D07B681B685D4A934252
:104A80002CD07B681B685C4A934227D07B681B68EC
:104A90005A4A934222D07B681B68594A93421DD0E0
:104AA0007B681B68574A934218D07B681B68564A3C
:104AB000934213D07B681B68544A93420ED07B68A4
:104AC0001B68534A934209D07B681B68514A934242
:104AD00004D07B681B68504A934201D1012300E057
:104AE0000023002B00F03B817B68002283F83420F8
:104AF0007B68022283F835207B681B68374A934223
:104B00004AD07B681B68364A934245D07B681B6855
:104B1000344A934240D07B681B68334A93423BD06F
:104B20007B681B68314A934236D07B681B68304AE9
:104B3000934231D07B681B682E4A93422CD07B680D
:104B40001B682D4A934227D07B681B682B4A9342EF
:104B500022D07B681B682A4A93421DD07B681B6861
:104B6000284A934218D07B681B68274A934213D087
:104B70007B681B68254A93420ED07B681B68244AD9
:104B8000934209D07B681B68224A934204D07B6819
:104B90001B68214A934208D17B681B681A687B68AE
:104BA0001B6822F001021A6007E07B681B681A6824
:104BB0007B681B6822F001021A602FE0FEF798F86C
:104BC00002463B69D31A052B28D97B6820225A65F7
:104BD0007B68032283F83520012346E2100002405F
:104BE000280002404000024058000240700002408D
:104BF00088000240A0000240B800024010040240B9
:104C0000280402404004024058040240700402405C
:104C100088040240A0040240B80402407B681B687C
:104C20001B6803F00103002BC8D17B681B681B685D
:104C30007B617A69834B13407B617B689A687B68F0
:104C4000DB681A437B681B691A437B685B691A43FC
:104C50007B689B691A437B68DB691A437B681B6A24
:104C600013437A6913437B617B685B6A042B07D12A
:104C70007B68DA6A7B681B6B13437A6913437B6139
:104C8000714B1A68714B1340B3F1005F28D37B68F6
:104C90005B68282B03D97B685B682E2B17D97B6850
:104CA0005B683E2B03D97B685B68422B0FD97B681E
:104CB0005B68462B03D97B685B68482B07D97B6808
:104CC0005B684E2B05D97B685B68522B01D80123AA
:104CD00000E00023002B03D07B6943F480137B6149
:104CE0007B681B687A691A607B681B685B697B61FB
:104CF0007B6923F007037B617B685B6A7A691343F6
:104D00007B617B685B6A042B17D17B689B6A7A693D
:104D100013437B617B68DB6A002B0ED0786802F05E
:104D200047F90346002B08D07B6840225A657B6810
:104D3000012283F83520012397E17B681B687A699B
:104D40005A61786802F082F80346BB607B68DB6DCD
:104D500003F01F033F229A40BB689A60CDE07B6856
:104D60001B683B4A934222D07B681B68394A9342B6
:104D70001DD07B681B68384A934218D07B681B683B
:104D8000364A934213D07B681B68354A93420ED053
:104D90007B681B68334A934209D07B681B68324AA0
:104DA000934204D07B681B68304A934201D10123AF
:104DB00000E00023002B00F097807B681B68244AEA
:104DC000934221D07B681B68224A93421CD07B68A7
:104DD0001B68214A934217D07B681B681F4A934285
:104DE00012D07B681B681E4A93420DD07B681B68FB
:104DF0001C4A934208D07B681B681B4A934203D02D
:104E00007B681B68194A934200BF7B68002283F8C5
:104E100034207B68022283F835207B681B681B687E
:104E20007B617A69124B13407B617B689B68402BE6
:104E300020D07B689B68802B02D14FF480431AE01E
:104E4000002318E03F8010FE0010005C0000FFFF10
:104E5000085402581C540258305402584454025802
:104E6000585402586C5402588054025894540258B2
:104E70000F00FEFF10237A68D268D2081A437B68BD
:104E80001B69DB081A437B685B69DB081A437B6894
:104E90009B69DB081A437B68DB69DB081A437B6884
:104EA0001B6A1B0913437A6913437B617B681B6888
:104EB0007A691A607B681B681A466E4B13446E4A07
:104EC000A2FB03231B099A007B68DA65786801F06E
:104ED000BDFF0346FB607B68DB6D03F01F0301220F
:104EE0009A40FB685A6008E07B6840225A657B68FC
:104EF000032283F835200123B7E07B681B685F4AF3
:104F0000934272D07B681B685D4A93426DD07B6888
:104F10001B685C4A934268D07B681B685A4A93427C
:104F200063D07B681B68594A93425ED07B681B68DC
:104F3000574A934259D07B681B68564A934254D0D3
:104F40007B681B68544A93424FD07B681B68534A66
:104F500093424AD07B681B68514A934245D07B6894
:104F60001B68504A934240D07B681B684E4A93426C
:104F70003BD07B681B684D4A934236D07B681B68E8
:104F80004B4A934231D07B681B684A4A93422CD0EB
:104F90007B681B68484A934227D07B681B68474A56
:104FA000934222D07B681B68454A93421DD07B68A0
:104FB0001B68444A934218D07B681B68424A93425C
:104FC00013D07B681B68414A93420ED07B681B68F4
:104FD0003F4A934209D07B681B683E4A934204D003
:104FE0007B681B683C4A934201D1012300E0002307
:104FF000002B32D0786802F057F87B689B68802BD2
:1050000002D17B6800225A607B685A687B681B6EFD
:10501000D2B21A607B685B6E7A68926E5A607B6867
:105020005B68002B10D07B685B68082B0CD8786815
:1050300002F0D4F87B68DB6E00221A607B681B6F7D
:105040007A68526F5A6008E07B680022DA667B68F3
:1050500000221A677B6800225A677B6800225A6523
:105060007B68012283F83520002318461837BD4697
:1050700080BD00BFF8ABFDA7CDCCCCCC100002406A
:1050800028000240400002405800024070000240E8
:1050900088000240A0000240B80002401004024014
:1050A00028040240400402405804024070040240B8
:1050B00088040240A0040240B80402400854025888
:1050C0001C54025830540258445402585854025840
:1050D0006C540258805402589454025880B586B0DB
:1050E00000AFF860B9607A603B600023FB75FB6835
:1050F000002B01D1012326E2FB6893F83430012B09
:1051000001D102231FE2FB68012283F83420FB68EF
:1051100093F83530DBB2012B40F00A82FB680222A3
:1051200083F83520FB6800225A65FB681B68684AD3
:1051300093424AD0FB681B68664A934245D0FB689D
:105140001B68654A934240D0FB681B68634A9342E0
:105150003BD0FB681B68624A934236D0FB681B68F1
:10516000604A934231D0FB681B685F4A93422CD05F
:10517000FB681B685D4A934227D0FB681B685C4A4A
:10518000934222D0FB681B685A4A93421DD0FB68A9
:105190001B68594A934218D0FB681B68574A9342D0
:1051A00013D0FB681B68564A93420ED0FB681B68FD
:1051B000544A934209D0FB681B68534A934204D077
:1051C000FB681B68514A934208D1FB681B681A6848
:1051D000FB681B6822F001021A6007E0FB681B688D
:1051E0001A68FB681B6822F001021A603B687A6843
:1051F000B968F86801F07EFCFB681B68344A93428A
:105200004AD0FB681B68334A934245D0FB681B6851
:10521000314A934240D0FB681B68304A93423BD0EE
:10522000FB681B682E4A934236D0FB681B682D4AE8
:10523000934231D0FB681B682B4A93422CD0FB6809
:105240001B682A4A934227D0FB681B68284A93426E
:1052500022D0FB681B68274A93421DD0FB681B685D
:10526000254A934218D0FB681B68244A934213D006
:10527000FB681B68224A93420ED0FB681B68214AD8
:10528000934209D0FB681B681F4A934204D0FB6815
:105290001B681E4A934201D1012300E00023002B2A
:1052A00036D0FB681B681B6823F01E02FB681B6876
:1052B00042F016021A60FB681B6C002B3ED0FB68A4
:1052C0001B681A68FB681B6842F008021A6035E028
:1052D00010000240280002404000024058000240F6
:1052E0007000024088000240A0000240B800024066
:1052F00010040240280402404004024058040240C6
:105300007004024088040240A0040240B804024035
:10531000FB681B681B6823F00E02FB681B6842F0E9
:105320000A021A60FB681B6C002B07D0FB681B6825
:105330001A68FB681B6842F004021A60FB681B686D
:10534000834A934272D0FB681B68824A93426DD0B5
:10535000FB681B68804A934268D0FB681B687F4AE1
:10536000934263D0FB681B687D4A93425ED0FB6822
:105370001B687C4A934259D0FB681B687A4A934267
:1053800054D0FB681B68794A93424FD0FB681B6876
:10539000774A93424AD0FB681B68764A934245D0CD
:1053A000FB681B68744A934240D0FB681B68734AD1
:1053B00093423BD0FB681B68714A934236D0FB682E
:1053C0001B68704A934231D0FB681B686E4A934257
:1053D0002CD0FB681B686D4A934227D0FB681B6882
:1053E0006B4A934222D0FB681B686A4A93421DD0E5
:1053F000FB681B68684A934218D0FB681B68674AC1
:10540000934213D0FB681B68654A93420ED0FB6839
:105410001B68644A934209D0FB681B68624A934246
:1054200004D0FB681B68614A934201D1012300E06C
:105430000023002B1AD0FB681B6E1B6803F480331B
:10544000002B07D0FB681B6E1A68FB681B6E42F4CA
:1054500080721A60FB68DB6E002B07D0FB68DB6E86
:105460001A68FB68DB6E42F480721A60FB681B6886
:10547000374A93424AD0FB681B68364A934245D06C
:10548000FB681B68344A934240D0FB681B68334A70
:1054900093423BD0FB681B68314A934236D0FB688D
:1054A0001B68304A934231D0FB681B682E4A9342F6
:1054B0002CD0FB681B682D4A934227D0FB681B68E1
:1054C0002B4A934222D0FB681B682A4A93421DD084
:1054D000FB681B68284A934218D0FB681B68274A60
:1054E000934213D0FB681B68254A93420ED0FB6899
:1054F0001B68244A934209D0FB681B68224A9342E6
:1055000004D0FB681B68214A934208D1FB681B68E2
:105510001A68FB681B6842F001021A6012E0FB681F
:105520001B681A68FB681B6842F001021A6009E0F8
:10553000FB68002283F83420FB684FF400625A6550
:105540000123FB75FB7D18461837BD4680BD00BFA3
:105550001000024028000240400002405800024073
:105560007000024088000240A0000240B8000240E3
:105570001004024028040240400402405804024043
:105580007004024088040240A0040240B8040240B3
:10559000085402581C5402583054025844540258BB
:1055A000585402586C54025880540258945402586B
:1055B00080B586B000AF7860FDF79AFB38617B68F4
:1055C000002B01D10123DCE27B6893F83530DBB29C
:1055D000022B08D07B6880225A657B68002283F802
:1055E00034200123CDE27B681B68764A93424AD07F
:1055F0007B681B68744A934245D07B681B68734A7A
:10560000934240D07B681B68714A93423BD07B68D1
:105610001B68704A934236D07B681B686E4A93427F
:1056200031D07B681B686D4A93422CD07B681B6825
:105630006B4A934227D07B681B686A4A934222D008
:105640007B681B68684A93421DD07B681B68674A69
:10565000934218D07B681B68654A934213D07B68DD
:105660001B68644A93420ED07B681B68624A93426F
:1056700009D07B681B68614A934204D07B681B6831
:105680005F4A934201D1012300E00023002B13D095
:105690007B681B681A687B681B6822F01E021A6010
:1056A0007B681B685A697B681B6822F080025A611C
:1056B0007B681B687B610AE07B681B681A687B68F3
:1056C0001B6822F00E021A607B681B687B617B6896
:1056D0001B683C4A934272D07B681B683A4A9342EB
:1056E0006DD07B681B68394A934268D07B681B6821
:1056F000374A934263D07B681B68364A93425ED038
:105700007B681B68344A934259D07B681B68334AD4
:10571000934254D07B681B68314A93424FD07B68D8
:105720001B68304A93424AD07B681B682E4A9342DA
:1057300045D07B681B682D4A934240D07B681B682C
:105740002B4A93423BD07B681B682A4A934236D04F
:105750007B681B68284A934231D07B681B68274AC4
:1057600093422CD07B681B68254A934227D07B68E4
:105770001B68244A934222D07B681B68224A9342CA
:105780001DD07B681B68214A934218D07B681B6838
:105790001F4A934213D07B681B681E4A93420ED067
:1057A0007B681B681C4A934209D07B681B681B4AB4
:1057B000934204D07B681B68194A934232D101237B
:1057C00031E000BF100002402800024040000240CB
:1057D000580002407000024088000240A0000240D1
:1057E000B800024010040240280402404004024075
:1057F000580402407004024088040240A0040240A1
:10580000B8040240085402581C540258305402583C
:1058100044540258585402586C5402588054025848
:10582000945402580023002B07D07B681B6E1A6823
:105830007B681B6E22F480721A607B681B686D4A5D
:1058400093424AD07B681B686B4A934245D07B6881
:105850001B686A4A934240D07B681B68684A93423F
:105860003BD07B681B68674A934236D07B681B68D5
:10587000654A934231D07B681B68644A93422CD0BE
:105880007B681B68624A934227D07B681B68614A29
:10589000934222D07B681B685F4A93421DD07B688D
:1058A0001B685E4A934218D07B681B685C4A93422F
:1058B00013D07B681B685B4A93420ED07B681B68E1
:1058C000594A934209D07B681B68584A934204D0D6
:1058D0007B681B68564A934208D17B681B681A682C
:1058E0007B681B6822F001021A6007E07B681B6876
:1058F0001A687B681B6822F001021A6013E0FDF74A
:10590000F7F902463B69D31A052B0CD97B68202294
:105910005A657B68002283F834207B68032283F871
:10592000352001232DE17B691B6803F00103002B67
:10593000E5D17B681B682F4A93424AD07B681B687D
:105940002D4A934245D07B681B682C4A934240D035
:105950007B681B682A4A93423BD07B681B68294AB4
:10596000934236D07B681B68274A934231D07B68CC
:105970001B68264A93422CD07B681B68244A9342BA
:1059800027D07B681B68234A934222D07B681B6820
:10599000214A93421DD07B681B68204A934218D04D
:1059A0007B681B681E4A934213D07B681B681D4AA4
:1059B00093420ED07B681B681B4A934209D07B68D8
:1059C0001B681A4A934204D07B681B68184A9342AA
:1059D00001D1012300E00023002B2BD07B689B6DBD
:1059E000BB607B68DB6D03F01F033F229A40BB68FE
:1059F0009A602AE010000240280002404000024065
:105A0000580002407000024088000240A00002409E
:105A1000B800024010040240280402404004024042
:105A2000580402407004024088040240A00402406E
:105A3000B80402407B689B6DFB607B68DB6D03F004
:105A40001F0301229A40FB685A607B681B684F4A1B
:105A5000934272D07B681B684D4A93426DD07B683D
:105A60001B684C4A934268D07B681B684A4A934241
:105A700063D07B681B68494A93425ED07B681B6891
:105A8000474A934259D07B681B68464A934254D098
:105A90007B681B68444A93424FD07B681B68434A2B
:105AA00093424AD07B681B68414A934245D07B6849
:105AB0001B68404A934240D07B681B683E4A934231
:105AC0003BD07B681B683D4A934236D07B681B689D
:105AD0003B4A934231D07B681B683A4A93422CD0B0
